:020000040800F2
:1000000000800120452F00089B7A0008A97A00088B
:10001000B17A0008B97A0008C17A0008000000002F
:10002000000000000000000000000000C97A000885
:10003000D77A000800000000E57A0008F37A00088B
:100040008D2F00088D2F00088D2F00088D2F0008A0
:100050008D2F00088D2F00088D2F00088D2F000890
:100060008D2F00088D2F00088D2F00088D2F000880
:100070008D2F00088D2F00088D2F00088D2F000870
:100080008D2F00088D2F0008057B00088D2F00089C
:100090008D2F00088D2F00088D2F00088D2F000850
:1000A0008D2F00088D2F00088D2F00088D2F000840
:1000B0008D2F00088D2F00088D2F00088D2F000830
:1000C0008D2F00088D2F00088D2F00088D2F000820
:1000D0008D2F0008194B00088D2F00088D2F000868
:1000E0008D2F00088D2F00088D2F00088D2F000800
:1000F0008D2F00088D2F00088D2F00088D2F0008F0
:100100008D2F00088D2F00088D2F00088D2F0008DF
:100110008D2F00088D2F0008BD7B00088D2F000853
:100120008D2F00088D2F00088D2F00088D2F0008BF
:100130008D2F00088D2F00088D2F00088D2F0008AF
:1001400000000000000000000000000000000000AF
:100150008D2F00088D2F00088D2F00088D2F00088F
:10016000E17B00088D2F0008EF7B00088D2F000831
:100170008D2F00088D2F00088D2F00088D2F00086F
:040180008D2F0008B7
:1001A0000348044B834202D0034B03B11847704706
:1001B0001C0400201C040020000000000548064B21
:1001C0001B1AD90F01EBA301491002D0034B03B155
:1001D000184770471C0400201C0400200000000089
:1001E00010B5064C237843B9FFF7DAFF044B13B17F
:1001F0000448AFF300800123237010BD1C040020CD
:1002000000000000A4CF000808B5044B1BB104494E
:100210000448AFF30080BDE80840CFE700000000CD
:1002200020040020A4CF000870B50F4B0F4DAB4247
:10023000A3EB050607D0B610002455F8043B0134A3
:100240009847A642F9D80CF0ADFE094D094B5E1B4C
:10025000AB424FEAA60606D0002455F8043B013411
:100260009847A642F9D870BD70D9000870D9000827
:1002700070D9000874D90008830730B547D0541EE0
:10028000002A3ED0CAB2034601E0013C39D303F84C
:10029000012B9D07F9D1032C2CD9CDB205EB0525F7
:1002A0000F2C05EB054535D9A4F1100222F00F0CF7
:1002B00003F1100EE6444FEA121C1A46C2E900553B
:1002C000C2E9025510327245F8D10CF1010214F066
:1002D0000C0F03EB021204F00F0C13D0ACF104036B
:1002E00023F003030433134442F8045B9342FBD12D
:1002F0000CF003042CB1C9B21C4403F8011BA34247
:10030000FBD130BD64461346002CF4D1F9E7034617
:100310001446C0E71A46A446E0E700BF0020704735
:10032000024A0349034800F0E1BA00BF0000002080
:1003300065060008100000200C4B4168994210B57A
:10034000044601D000F08EF9A168094B994202D011
:10035000204600F087F9E168064B994204D0204618
:10036000BDE8104000F07EB910BD00BF3804002089
:10037000A004002008050020002070472DE9F84364
:100380002A4C2B49DFF8BC90DFF8BC80294FC4F819
:100390003811002504230822294604F15C00264E6A
:1003A000E360C4E90055C4E90455A5606566A5612C
:1003B000FFF762FF214B63670822294604F1C4005E
:1003C000C4E90849C4E90A87C4E91A55C4E91E55B5
:1003D0002567C4F8CC50C4F880502663FFF74CFF63
:1003E000174BC4F8DC30294604F16803082204F5F1
:1003F0009670C4F88830C4E92398C4E92576C4E926
:100400003455C4E93855C4F8D850C4F83451C4F848
:10041000E850FFF731FF04F1D003C4E93D98C4E987
:100420003F76C4F8F030BDE8F88300BF3804002000
:1004300021030008C5090008E909000809000100B6
:10044000120002005D09000885090008F8B5254B77
:10045000D3F838310646002B3CD0234FD7E901347E
:10046000013B04D51DE05A1C04F1680419D0B4F90D
:100470000C50013B002DF6D11C4BE360C4E9015543
:10048000C4E9045565662560A5610822294604F182
:100490005C00FFF7F1FEC4E90D55C4E91255204692
:1004A000F8BD3D680DB12F46D8E74FF4D671304600
:1004B00000F03EF9044680B10423C0E900530C303B
:1004C0002946A0604FF4D0722546FFF7D5FE3C6068
:1004D0002F46C3E7FFF752FFBFE70C2338603360B6
:1004E000DDE700BF38040020000000200100FFFF0E
:1004F000036A03B17047044B044AD3F838310262EF
:10050000002BF7D13AE700BF380400203903000878
:10051000704700BF704700BF024A0349002000F047
:10052000E5B900BF000000201D030008024A03498E
:10053000002000F0DBB900BF0000002079030008B4
:10054000B1F90C302DE9F0411E070C4680463DD430
:100550004A68002A56DDE56A002D34D00022D8F81A
:100560000060C8F8002013F48052216A57D101239B
:100570004046A847451C024666D0B4F90C30E56AEF
:10058000216A580705D56368D21A636B0BB1236CD7
:10059000D21A00234046A847431C42D00023636080
:1005A00023692360A389DF0400D56065616BC8F807
:1005B000006041B104F14403994202D0404600F08A
:1005C00037F9002363630020BDE8F0810E69002E37
:1005D000F9D09B070D6808BF4B690E6018BF002358
:1005E000AD1B8B600BE02B463246216AA76A404662
:1005F000B847B0F1000CA5EB0C05664406DD002DF4
:10060000F1DCE0E70A6C002AA5DCDCE7B4F90C3089
:1006100043F04003A3814FF0FF30BDE8F081626DED
:10062000AFE7D8F80010B4F90C301D29F0D80C4A07
:10063000CA40D507ECD52269226000226260DA0444
:10064000B4D50029B1D0B1E7D8F80030002B94D050
:100650001D2B01D0162BD9D1C8F80060B3E700BF1D
:10066000010040200B69B3B110B5044682B008B157
:10067000036A5BB1B1F90C3013B9002002B010BDB0
:10068000204602B0BDE81040FFF75ABF0191FFF7C6
:100690002FFF0199EEE70020704700BFB8B138B5D1
:1006A0000D4A0369156804462BB10DB12B6A53B18D
:1006B000B4F90C300BB9002038BD21462846BDE8FE
:1006C0003840FFF73DBF2846FFF712FFF0E7034A27
:1006D0000349044800F00AB90C0000200000002083
:1006E000650600081000002070B5104E33680546FE
:1006F0000C46B3B12146284600F01EF9431C0CD02D
:10070000C41C24F00304A04205D0211A284600F09E
:1007100013F9013001D0204670BD4FF0FF34204660
:1007200070BD194600F008F93060E3E77405002059
:100730002DE9F843CD1C25F0030508350C2D38BFF5
:100740000C25002D064618DBA94216D8DFF8DC8000
:1007500000F0EEF8D8F80420A2B1144603E0636874
:1007600022467BB11C4623685B1BF8D40B2B1FD899
:100770009442636854D053600CE00C233360002033
:10078000BDE8F88329463046FFF7AEFF431C044618
:1007900019D00560304600F0CDF804F10B00231DA0
:1007A00020F00700C21A1CBF1B1AA350BDE8F88333
:1007B00061199442256014BF5160C8F80410635158
:1007C00063684B60E6E7D8F804701FB33C467F6867
:1007D000002FFBD123683946304604EB030900F0B3
:1007E000ABF8814516D12368ED1A29463046FFF74C
:1007F0007BFF01300ED02368D8F804202B442360FF
:10080000536883B1A34203D01A465B689C42FBD174
:100810000023B0E70C233360304600F08BF8AEE7DE
:10082000C8F80430B6E7C8F80470B3E774050020D0
:10083000002950D038B551F8043C0C1F002BB8BF2C
:10084000E418054600F074F8274A13682BB1A34258
:100850000CD92168601883422CD06360284614604C
:10086000BDE8384000F066B8A3420FD81A465B686E
:10087000002BF9D111685018844217D02CD3636033
:1008800054602846BDE8384000F054B8116850184C
:10089000A04214D020D8216860188342EFD1186894
:1008A0005B680844C4E900035460EAE723680B442A
:1008B0001360E6E718685B6808442060CDE72068AD
:1008C0000144501883421160DBD1D3E90004014494
:1008D000C2E90014D5E770470C232B602846BDE819
:1008E000384000F027B800BF780500202DE9F84314
:1008F0000746884616464FF00009D6E90154013DE7
:1009000010D4A389012B08D9B4F90E300133214644
:10091000384602D0C04749EA0009013D6B1C04F18A
:100920006804EED13668002EE7D14846BDE8F8836A
:10093000704700BF704700BF38B5074D002204461E
:1009400008462A6007F0A2FF431C00D038BD2B6880
:10095000002BFBD0236038BD7C05002010B50C4671
:10096000B1F90E1000F056F8002803DB636D034464
:10097000636510BDA38923F48053A38110BD00BF1C
:10098000002070472DE9F0410C46B1F90C101F46CC
:10099000CB05054616460BD421F48051A1813B4678
:1009A000B4F90E1032462846BDE8F04100F05EB8BA
:1009B000B4F90E100223002200F042F8B4F90C1032
:1009C000EAE700BF10B50C46B1F90E1000F038F898
:1009D000B4F90C30421C0EBF23F4805343F480530F
:1009E0006065A38110BD00BFB1F90E1000F000B822
:1009F00038B5074D0022044608462A6007F011FF6B
:100A0000431C00D038BD2B68002BFBD0236038BDC1
:100A10007C05002038B50C46084D8446114620461A
:100A20001A4600232B60644607F0C2FE431C00D028
:100A300038BD2B68002BFBD0236038BD7C0500201F
:100A400038B50C46084D8446114620461A46002308
:100A50002B60644607F00CFF431C00D038BD2B68A8
:100A6000002BFBD0236038BD7C05002038B50C4638
:100A7000084D8446114620461A4600232B606446E2
:100A800007F0B3FE431C00D038BD2B68002BFBD011
:100A9000236038BD7C050020036A2DE9F04184689D
:100AA00080460E46002B3BD0A3891B0717D5236930
:100AB000ABB1013EA36816F8015F013BA360EDB145
:100AC000002B07DAA7699F4222462946404610DCE0
:100AD0000A2D0ED023685A1C22601D70EAE72146B9
:100AE000404600F0EDF80028E3D04FF0FF30BDE8BD
:100AF000F08100F0E5FD0130DCD1F6E7002B09DAEA
:100B000022460A21404600F0DBFD0130EDD00A20EC
:100B1000BDE8F08123680A22591C21601A70F6E7AB
:100B2000FFF7E6FCC0E700BF024B01461868FFF77D
:100B3000B3BF00BF0C000020014B1868704700BF16
:100B40000C0000200A22002100F0AEB80A23002287
:100B500000F09CB8242B2DE9F84F43D8012B41D04D
:100B6000804649481F468E4675461EF801BB10F860
:100B70000B4014F00804F7D1BBF12D0F6FD0BBF17F
:100B80002B0F08BF9EF800B06FF0004908BF05F1B9
:100B9000020E73BBBBF1300F4BD00A273B4600253A
:100BA000B9FBF7F6284607FB169A05E03AD007FB93
:100BB00000C001251EF801BBABF1300CBCF1090FE0
:100BC00006D9ABF1410CBCF1190F19D8ABF1370CB8
:100BD00063451EDDB5F1FF3FECD08642E6D24FF013
:100BE000FF35E7E7FFF7A8FF162303600020BDE805
:100BF000F88F102BD3D1BBF1300F23D01F46CEE797
:100C0000ABF1610CBCF1190F03D8ABF1570C634584
:100C1000E0DC6B1C2BD054B9002AE8D085BB1160F6
:100C2000BDE8F88FE245C2DA4FF0FF35C2E7404237
:100C3000F2E79EF8003003F0DF03582B08D00827B6
:100C40003B46ACE79EF8000000F0DF005828D5D105
:100C500010279EF801B03B460EF1020E9FE79EF86A
:100C600000B04FF0004905F1020E012491E7222364
:100C7000C8F8003032B10EF1FF3148461160CFE7BD
:100C80008146F8E74846B2E70DD3000862E700BFA7
:100C900010B4044C8446134620685DF8044B0A46A1
:100CA000614657E70C00002010B4044C84461346FC
:100CB00020685DF8044B0A4661464BE70C000020B3
:100CC00038B52F4B1B6805460C4613B11A6A002A2B
:100CD0004BD0B4F90C3018071CD5226922B313F09D
:100CE000010107D0616900204942A060A1613AB1C9
:100CF000002038BD980758BF6169A160002AF7D16C
:100D0000190658BF1046F4D543F04003A3814FF0B5
:100D1000FF3038BDD9062CD55A0712D4226943F0CA
:100D20000803A381002ADAD103F42071B1F5007F12
:100D3000D5D02146284600F005F9B4F90C302269D7
:100D4000CDE7616B51B104F14402914204D02846D1
:100D5000FFF76EFDB4F90C300022626322690021B6
:100D6000C4E9002123F02403D9E71846FFF7C0FBAC
:100D7000AFE7092243F040032A60A381C7E700BF21
:100D80000C000020844641EA000313F003036DD1F8
:100D9000403A41D351F8043B40F8043B51F8043B3E
:100DA00040F8043B51F8043B40F8043B51F8043B45
:100DB00040F8043B51F8043B40F8043B51F8043B35
:100DC00040F8043B51F8043B40F8043B51F8043B25
:100DD00040F8043B51F8043B40F8043B51F8043B15
:100DE00040F8043B51F8043B40F8043B51F8043B05
:100DF00040F8043B51F8043B40F8043B51F8043BF5
:100E000040F8043B51F8043B40F8043B51F8043BE4
:100E100040F8043B403ABDD2303211D351F8043B84
:100E200040F8043B51F8043B40F8043B51F8043BC4
:100E300040F8043B51F8043B40F8043B103AEDD233
:100E40000C3205D351F8043B40F8043B043AF9D284
:100E5000043208D0D2071CBF11F8013B00F8013B57
:100E600001D30B8803806046704700BF082A13D364
:100E70008B078DD010F003038AD0C3F10403D21A7C
:100E8000DB071CBF11F8013B00F8013B80D331F8B0
:100E9000023B20F8023B7BE7043AD9D3013A11F830
:100EA000013B00F8013BF9D20B7803704B7843709B
:100EB0008B78837060467047002A3ED030B58446F8
:100EC0000446084380070B462ED1032A07D82BE09F
:100ED000043A25D01EF0803F22D1032A22D920686F
:100EE000194653F8045BA0F1013EA842A4462EEA3D
:100EF000000E04F10404EBD09CF800000C7884424E
:100F00001DD1E64668B11EF8010F11F8014FA2EBA2
:100F10000E03A04203F1FF3311D11CEB0303F1D107
:100F2000002030BDA44619469CF800000C78A04271
:100F300005D1012AF4D0E646E4E710467047001BCD
:100F400030BD00BF70B5B1F90C300C46990796B0B2
:100F500007D504F147030122C4E90432236016B027
:100F600070BDB4F90E100029054629DB6A4601F070
:100F70004DF8002822DB4FF480612846019EFFF7E0
:100F8000D7FB88B3A389206043F0800306F4704642
:100F9000A381B6F5005F4FF48063C4E90403DED19A
:100FA000B4F90E10284600F0EFF90028D7D0A38935
:100FB00023F0030343F00103A381D0E7B4F90C301D
:100FC00013F0800F14BF40264FF480663146284648
:100FD000FFF7AEFB40B1A389206043F08003C4E972
:100FE0000406A38116B070BDB4F90C309A05B6D4CE
:100FF00023F0030304F1470243F002030121C4E993
:101000000421A3812260AAE770B50C46B1F90E1045
:10101000002996B015461E460FDB6A4600F0F6FF23
:1010200000280ADB019B03F47043A3F50053B3FAD5
:1010300083F34FF480625B0908E0A28912F0800F0D
:101040004FF0000314BF40224FF480620020336051
:101050002A6016B070BD00BF000000000000000054
:1010600002780B78012A28BF9A4240F0D8806DE9B7
:10107000044540EA0104CDE902676FF0000C4FEA35
:1010800044721AB380EA010414F0070F6BD100F028
:10109000070420F0070004F0030521F007014FEAE0
:1010A000C505F0E8042314F0040FF1E804670CFA16
:1010B00005F462EA040266EA04060BD063EA04035C
:1010C000624667EA0407664604E000BFF0E80423CE
:1010D000F1E8046782FA4CF582EA0604A4FA8CF47B
:1010E0006CBB83FA4CF583EA0705A5FA8CF595B934
:1010F00050E9022351E9026782FA4CF582EA0604BC
:10110000A4FA8CF483FA4CF583EA0705A5FA8CF56A
:101110002543DBD09CB92DBAB5FA85F424F0070439
:1011200027FA04F1DDE9026723FA04F303F0FF0074
:1011300001F0FF01FDE80445A0EB0100704724BA6F
:10114000B4FA84F424F0070426FA04F1DDE9026716
:1011500022FA04F202F0FF0001F0FF01FDE804456D
:10116000A0EB0100704714F0030F3CD110F0030412
:1011700028D150F8082B51F8083B82FA4CF582EA46
:101180000305A5FA8CF55DB950F8042C51F8043C20
:1011900082FA4CF582EA0305A5FA8CF5002DE8D019
:1011A0002DBAB5FA85F424F0070423FA04F122FAE3
:1011B00004F202F0FF0001F0FF01FDE80445A0EB9E
:1011C000010070474FEAC40420F0030050F8082BD8
:1011D00021F0030151F8083B0CFA04F462EA04021E
:1011E00063EA0403C9E710F003041DD0A1EB040176
:1011F00020F00300E40750F8042B06D012D28B78BD
:101200005FFAA2F4E41A06D12BB1CB785FFAB2F4FC
:10121000E41A00D133B920465DF8104B7047A2EBB9
:101220000300704701F1040150F8042BCC0721F0B2
:10123000030151F8043B48D824D222F07F4482FABB
:101240004CF594EA1325A5FA8CF50AD165B951F845
:10125000043B84EA0204B4EB036F0ED150F8042B74
:10126000EBE74FEA132355E035F07F454DD1087881
:10127000FDE80445C0F1000070474FEA126203F038
:10128000FF0347E002EA1C4482FA4CF594EA134556
:10129000A5FA8CF50AD165B951F8043B84EA020439
:1012A000B4EB034F0CD150F8042BEBE74FEA134398
:1012B00030E015EA1C4528D10B884FEA124229E09C
:1012C0004FEA124203EA1C4324E002F0FF0482FAD0
:1012D0004CF594EA1365A5FA8CF50AD165B951F875
:1012E000043B84EA0204B4EB032F09D150F8042B29
:1012F000EBE74FEA13630DE015F0FF0F05D10B6824
:101300004FEA122223F07F4304E04FF00000FDE893
:101310000445704712BA1BBA82FA4CF482EA0304FD
:10132000A4FA8CF5B5FA85F402FA04F203FA04F390
:101330004FEA1260FDE80445A0EB1360704700BF60
:101340000EB400B582B003AB816853F8042B01934F
:1013500000F072F802B05DF804EB03B0704700BF14
:101360000FB400B5074983B004AB086853F8042BE9
:101370008168019300F060F803B05DF804EB04B0FD
:10138000704700BF0C00002038B5074D002204460E
:1013900008462A6007F061FA431C00D038BD2B686C
:1013A000002BFBD0236038BD7C0500209368013BF7
:1013B000002B936011DA10B49469A34209DB0A2967
:1013C00007D01368581C1060197008465DF8044B6C
:1013D00070475DF8044B00F073B91368581C106037
:1013E00019700846704700BF9BB1F8B51344064614
:1013F0000F46541E5D1E01E0AC4208D014F8011FD8
:101400003A463046FFF7D2FF431CF5D1F8BD002025
:10141000F8BD0020704700BF936810B514461BB993
:1014200018460023636010BD00F09AF90023A36002
:101430000023636010BD00BF2DE9F04FA1B08B46C3
:1014400091461C46049018B1036A002B00F01C81E1
:10145000BBF80C30180740F19580DBF81030002BFA
:1014600000F090800023CA460D9343F22003ADF8AC
:1014700039309AF80030864E07940127002B79D036
:10148000D14604E019F8013F002B00F08580252BA0
:10149000F8D1B9EB0A0840F0828099F80030002BAF
:1014A00068D000234FF0FF32CDE9092309F101098B
:1014B00008930B938DF863301E9305E0089A07FAA2
:1014C00003F31A430892A1464C46052214F8011B67
:1014D000304600F045FBA246831B0028EED1089B56
:1014E000D90644BF20228DF8632099F800101A070E
:1014F00044BF2B228DF863202A2966D1079A1168F0
:10150000043200290792C0F29A800B9199F80110D9
:101510002E2970D05F4C0322204600F021FB38B109
:10152000089B001B4022824013430AF1010A0893E2
:101530001AF8011B58488DF83810062200F010FBED
:10154000002800F08280554B002B69D007AA00923A
:10155000534B04985A4608A9AFF300800390039BAD
:10156000013307D00D9B039A13440D939AF8003072
:10157000002B85D1BBF80C305B060AD40D9821B046
:10158000BDE8F08F04985946FFF79AFB00283FF416
:1015900069AF4FF0FF30F2E7B9EB0A08EAD00AF181
:1015A000FF35CDF81490A946049D01E0A0453ED931
:1015B0004C465A4619F8011F2846FFF7F7FE023439
:1015C0000130A4EB0A04F1D1D4E7A1F13002092AD9
:1015D00088BFCA469CD80B9B00E00134217803EBFE
:1015E000830302EB4303A1F13002092AF5D92E2926
:1015F0000B93A2468ED19AF801102A292FD1079B6E
:101600009AF802101A6809920433002A0AF10200BB
:101610000793B8BF4FF0FF338246B8BF099379E70D
:10162000079B073323F00703083307939AE70D99C5
:10163000DDF81490414499F800300D912FE74942AC
:1016400043F002030B91089360E707AA0092144B42
:1016500004985A4608A900F097FB03907FE7A1F190
:1016600030020023092A09930AF1010A3FF652AF1A
:101670001AF8011F03EB830302EB4303A1F13002CD
:10168000092AF5D9099345E7FEF732FFE0E600BFE6
:101690002CD9000834D9000838D90008000000000F
:1016A000E913000810B4054C8446134620685DF821
:1016B000044B0A466146FFF7BFBE00BF0C00002086
:1016C000F8B50D461446064610B1036A002B37D014
:1016D000A389A269A2601A0719D52369BBB1226840
:1016E0006169D31AEDB299422F4620DD0133A1681A
:1016F0000139A160511C2160157062699A420DD0B8
:10170000A389DB0701D50A2D08D03846F8BD21464C
:101710003046FFF7D5FA38B92369E0E7214630466D
:10172000FEF7A0FF0028F0D04FF0FF37EDE721468D
:101730003046FEF797FF0028F6D122680123D6E74E
:10174000FEF7D6FEC4E700BF10B4044C03460A46B9
:1017500020685DF8044B1946FFF7B2BF0C0000206B
:101760009368002B00F0F8802DE9F04FB1F90CC020
:101770001CF0080F83B0904681460C4631D00B69AF
:101780007BB31CF00207D8F8006038D00027D4F8EB
:1017900028B0216ADFF8C4A23D4655452B463A469B
:1017A00028BF53464846C5B1D847002840F3CA80F1
:1017B000D8F808301B1A07442D1AC8F80830002B37
:1017C00000F0B68055452B46D4F828B0216A28BFD2
:1017D00053463A464846002DE6D1D6E9007508360C
:1017E000DBE721464846FFF76BFA002840F0AF8060
:1017F000B4F90CC0D8F800601CF00207C6D11CF088
:10180000010A63D12368A168574618468B46002F0A
:1018100058D01CF4007F00F0B580B9420A4600F2AF
:10182000E1801CF4906F2FD0216962695D1A02EB90
:10183000420202EBD2726B1C52103B44934292BFA5
:1018400093469B461A461CF4806F00F0EA801146CE
:101850004846FEF76DFF002800F0F9802A4621690E
:101860000090FFF78FFAA289009B22F4906242F069
:101870008002A2815819ABEB0505C4F814B02361AE
:10188000A5602060BB463A465146009200F0E8F859
:10189000A1682368009AA1EB0B011A443D46A160A0
:1018A00022600027D8F808305B1BAA44C8F808302B
:1018B000002B3DD02368A168B4F90CC018468B46B4
:1018C000002FA6D1D6E900A708369EE73846BB46CA
:1018D0003D460097002D41D0002846D0009A206850
:1018E000A168D4E90473AA4228BF2A46B84204D9A1
:1018F00001EB030A524500F38580934275DC216AAF
:10190000A76A5A464846B847B0F1000A1ADD009B5C
:10191000B3EB0A0300930FD00120D8F80830A3EBF3
:101920000A03D344A5EB0A05C8F80830002BD1D12F
:10193000002003B0BDE8F08F21464846FEF792FE36
:101940000028EAD0B4F90C3043F04003A3814FF0F3
:10195000FF3003B0BDE8F08F002070477568334654
:101960000836002DFAD0D3F800B02A460A2158468E
:1019700000F0F6F8002867D00130A0EB0B030093CD
:101980001A46ACE722699A4214D36269BA4211D866
:101990006FF00043BB4228BF3B46A56A93FBF2F3BE
:1019A000216A02FB03F348465246A847051EC9DDDB
:1019B0007F1B77E7B94228BF39460D4618460A46CD
:1019C000514600F04DF8A1682368491B2B44A160E3
:1019D00023600029ECD121464846FEF743FE00284B
:1019E000E6D0AFE7BB463A464EE75946019200F0D3
:1019F00037F8019AA3689B1AA360236813442360F5
:101A0000924684E75946524600F02AF82368534428
:101A1000236021464846FEF725FE00283FF477AFB5
:101A200090E7484600F0ECF8034600287FF422AF28
:101A300021694846FEF7FCFEB4F90C300C22C9F8C7
:101A4000002023F080037FE76A1C009247E70C2206
:101A5000B4F90C30C9F8002076E700BF00FCFF7F26
:101A600088420ED98B1883420BD900EB020C002A56
:101A70006ED0624613F801CD02F801CD9942F9D13A
:101A800070470F2A0FD8034602F1FF3C002A5FD0AF
:101A90000CF1010C013B8C4411F8012B03F8012FD0
:101AA0006145F9D1704740EA01039B0751D1A2F18A
:101AB000100370B501F1200C23F00F0501F1100E99
:101AC00000F11004AC441B095EF8105C44F8105C93
:101AD0005EF80C5C44F80C5C5EF8085C44F8085C4A
:101AE0005EF8045C44F8045C0EF1100EE64504F167
:101AF0001004E9D1013312F00C0F01EB031102F0D5
:101B00000F0400EB031328D0043C24F003064FEA33
:101B1000940C1E441C1F8E465EF8045B44F8045F60
:101B2000B442F9D10CF1010402F0030203EB840387
:101B300001EB840102F1FF3C4AB10CF1010C013BC5
:101B40008C4411F8012B03F8012F6145F9D170BDC8
:101B5000704702F1FF3C03469AE72246EAE700BFDE
:101B600001F0FF01102A2BDB10F0070F08D010F84E
:101B7000013B013A8B422DD010F0070F42B3F6D152
:101B8000F0B441EA012141EA014122F007047FF06B
:101B900000070023F0E80256083C85EA010586EAC2
:101BA000010685FA47F5A3FA87F586FA47F6A5FAFE
:101BB00087F68EB9EED1F0BC01F0FF0102F007020A
:101BC00032B110F8013B013A83EA010313B1F8D1B5
:101BD0000020704701387047002D06BF3546033896
:101BE000073815F0010F07D1013015F4807F02BFCF
:101BF000013015F4C03F0130F0BC0138704700BF20
:101C00002DE9F041144641B30AB306460D4600F0F3
:101C100013FA8442074602D8B4EB500F13D821467A
:101C20003046FEF785FD804650B1BC42224629462B
:101C300028BF3A46FFF7A6F829463046FEF7F8FDDA
:101C40004046BDE8F081A8464046BDE8F081A04688
:101C5000FEF7EEFD4046BDE8F081BDE8F0411146DB
:101C6000FEF766BD2DE9F84F92461F460A698B685C
:101C7000DDF828909A42B8BF1A46CAF8002091F8B9
:101C800043300C46064613B10132CAF800202268E0
:101C900091065FD5DAF800300233CAF800302268C6
:101CA00012F0060F11461DD1E1689942D8BF1146C6
:101CB00018DD4FF0000804F1190B05E0E568DAF8CB
:101CC0000030ED1A45450CDD01235A4639463046B1
:101CD000C847013008F10108F0D14FF0FF30BDE8EE
:101CE000F88F216894F84330003B18BF01238A061F
:101CF0000AD5E1185A1C302081F84300224494F898
:101D0000451082F84310023304F14302394630464D
:101D1000C8470130E1D02368DAF80050216903F0A8
:101D20000603042BD4E902201BD08A4220DD4FF0A9
:101D30000008521A90441A34002501E0454517DA8C
:101D40000123224639463046C847013005F10105D6
:101D5000F4D1C2E712F0060F0DD0003B18BF0123EB
:101D6000D2E7401B8A4220EAE078E2DC0028E2DC8D
:101D70000020BDE8F88FE168DAF800309942D8BF5A
:101D8000114696DCAEE700BF2DE9F047174684B058
:101D90000A7E0C9D0C460646984601F1430C002A2B
:101DA00035D0A2F15803D9B2202969D8202B67D8A1
:101DB000DFE813F0E6006600660066006600660075
:101DC00066006600660066006600AC007000660093
:101DD00066006600660070006600660066006600C9
:101DE00021008300C60066006600B600660083001E
:101DF00066006600EC002B6822686169181D286087
:101E000010061B6802D4520600F1E080196000231E
:101E1000E1462361CDF800803B4603AA21463046C7
:101E2000FFF720FF013020D023694A46394630466B
:101E3000C047013019D02368E068DDF80C909B079B
:101E400018D5484516DD002504F1190A04E0E068BC
:101E5000A0EB0903AB420DDD012352463946304663
:101E6000C047013005F10105F1D14FF0FF3004B05A
:101E7000BDE8F0874845B8BF484604B0BDE8F087E4
:101E800084F84220012004F142090023206184F8F3
:101E90004330BFE72A682368111D1806296002D461
:101EA000590600F195801068014600286268C0F26A
:101EB000938054484FF00A0E15E020682B6810F00C
:101EC000800F53F8041B02D1400648BF89B26F2A25
:101ED0004C482B6014BF4FF00A0E4FF0080E002341
:101EE000626884F84330002AA26051DB236823F043
:101EF0000403236000294BD1002A7BD1E146BEF1C7
:101F0000080F56D0ACEB0903236183E72B681A68EE
:101F100004332B6004F1420984F842200120B4E725
:101F20002B686268191D2960D3F80090002148468B
:101F3000FFF716FE002863D0A0EB09006060A4E75D
:101F4000236843F02003236078222F4884F845203B
:101F50002A6813F0800F52F8041B03D113F0400FCE
:101F600018BF89B22A60DA0744BF43F02003236018
:101F700019B9236823F0200323604FF0100EAEE759
:101F8000582384F845301F482368E1E72368DBE7DE
:101F90007546E146B1FBF5F305FB131A0A46AA4262
:101FA00010F80A1009F8011D1946F3D2BEF1080F06
:101FB000A8D12368DD07A5D5626823699A42A1DC10
:101FC000302309F8013C09F1FF399BE719801EE72E
:101FD000B2F90010084668E72D20002AA26084F8B4
:101FE000430002DB23F0040323600A25054849422D
:101FF000AE46CEE7037884F8423004F142097EE72A
:10200000606842E740D9000854D9000870B50C4612
:10201000084D03460026204611461C462E6006F059
:102020000CFC431C00D070BD2B68002BFBD0236040
:1020300070BD00BF7C05002051F8043C181F002B28
:10204000BCBF0B58C018704708B52DED028BB0EE21
:10205000408A00F0A3FAB4EE488AF1EE10FA0FD6E7
:10206000B5EEC08AF1EE10FA0ADCB5EE408AF1EE68
:1020700010FA08D1FEF760FD22239FED090A0360E4
:10208000BDEC028B08BDFEF757FDBDEC028B03468D
:1020900021221A600348BDE8084000F03DB800BFA7
:1020A000000080FF50D9000810EE103A184923F0C4
:1020B00000428A421AD9B2F1FF4F02D330EE400AF1
:1020C000704700B583B0684600F030F900F00300B7
:1020D0000128DDED010A9DED000A10D0022809D08B
:1020E00090B900F01FF803B05DF804FBDFED090ABA
:1020F00000F018B800F016F8B1EE400AF3E700F06F
:10210000CDF8B1EE400AEEE7012000F0C7F8EAE7AB
:10211000D80F493F000000009FED010A704700BF43
:102120000000C07F10EE103A23F00043B3F1485F87
:102130002CD2FDEEC07A17EE903A002B60D060EE04
:10214000007A9FED317A9FED315ADFED315A9FEDE4
:10215000316ADFED316AA7EE875A9FED307AE7EEFC
:10216000855AA7EEA56AA7EE867AE7EE876A67EE3C
:10217000A66A60EEC00AB6EE007AE7EEA60AB7EEEF
:10218000000AD7EE870A30EE600A704760EE007AE8
:102190009FED1D7A9FED1D5ADFED1D5A9FED1D6AC3
:1021A000DFED1D6A1E4AA7EE875A93429FED1B7A08
:1021B000E5EE275AA5EEA76AA6EE277AE7EE276A8C
:1021C00066EEA76AD5D9174A934214D803F17F4324
:1021D00007EE103AB7EE006A36EE476A60EEC00AC4
:1021E000F6EE005A97EEA57AE7EEA60A37EE607A89
:1021F00036EE470A7047B6EE076AB5EE027AEDE7AB
:10220000B7EE000A704700BF4ED747ADF6740F31E6
:102210007CF293B4010DD037ABAA2A3D610BB6BA5C
:102220009999993E0000483F10EE103A194923F061
:1022300000428A421BD9B2F1FF4F02D330EE400A6E
:10224000704700B583B0684600F070F800F00300F6
:102250000128DDED010A9DED000A13D002280BD004
:1022600098B9012000F01AF803B05DF804FBDFED27
:102270000A0A002000F012B8012000F00FF8B1EEB9
:10228000400AF1E7FFF74EFFEEE7FFF74BFFB1EE35
:10229000400AE9E7D80F493F0000000010EE103A6D
:1022A00023F00043B3F1485F04D2FDEEC07A17EE8D
:1022B000903A5BB360EE007A9FED157ADFED155A28
:1022C0009FED156ADFED156AE7EE875A9FED147AE8
:1022D000A5EEA76A20EE275AE6EE276AA6EEA77AB1
:1022E00030B9DFED106AE7EE876AA6EE850A70471F
:1022F00027EE457AF6EE006AA0EEA67ADFED0A6ACE
:10230000D7EE270AE5EE260A30EE600A704700BFD6
:10231000D3C92E2F342FD7B21BEF3836010D50B949
:102320008988083CABAA2ABEABAA2A3E70B510EE3B
:10233000103A884A23F00044944286B0054671D989
:10234000854A94421E4624D823F00042002BDFED3C
:10235000837A834922F00F02B0EE407A40F3E080A6
:102360008A4270EE677A09BF9FED7E7ADFED7E6A62
:10237000DFED7E6A77EEC77A37EEE67A77EEC77AD8
:1023800080ED007A77EEE67AC0ED017A012006B0A2
:1023900070BD774A944252D9B4F1FF4F48D2E2154A
:1023A000863AA4EBC25307EE903ABDEEE77ADFED32
:1023B000716AB8EEC77A77EEC77A8DED037A67EE69
:1023C000A67ABDEEE77AB8EEC77A77EEC77A8DEDDA
:1023D000047A67EEA67AF5EE407AF1EE10FACDEDCA
:1023E000057A40F09880B5EE407AF1EE10FA0CBF15
:1023F00001230223604901910221009103A829468B
:1024000000F0C6F9002EC2DA95ED007AD5ED017A1A
:10241000B1EE477AF1EE677A85ED007AC5ED017A83
:102420004042B4E7002285ED000A42600020AEE79A
:1024300070EE407AC0ED017AC0ED007AF6E700F068
:10244000A5F89FED4E7A9FED456AF6EE007AE0EE34
:10245000077A9FED457AFDEEE77A17EE900AF8EEDF
:10246000E76A1F28A6EEC60A66EE877AB1EE666AAC
:1024700020DC434A411E26F0004352F8212023F07D
:10248000FF03934216D030EE677A30EE470A002EF3
:1024900030EE670A85ED007A85ED010ABFF677AF69
:1024A000B1EE477AB1EE400A85ED007A85ED010A7A
:1024B00040426CE730EE677AE21517EE103AC3F34C
:1024C000C753C3EBD453082BDFDD9FED267A9FED76
:1024D000275AF0EE405AE6EE075A70EE657AE6EEBD
:1024E000077AD6EE857A35EEE77A17EE103AC3F31F
:1024F000C753D21A192A10DD9FED227A9FED225A76
:10250000B0EE650AA6EE070A75EEC07AE6EE077A27
:10251000D6EE857AB7E703236CE7B0EE650AB4E739
:102520008A4270EE277A09BF9FED0E7ADFED0E6AC0
:10253000DFED0E6A77EE877A37EEA67A77EEC77A06
:1025400080ED007A77EEA67AC0ED017A4FF0FF3089
:102550001DE700BFD80F493FE3CB1640800FC93FAE
:10256000D00FC93F004435374344353708A3852E83
:10257000800F49430000804390D4000884F9223F33
:1025800010D4000800A3852E32318D2410EE103AAD
:1025900023F0004300EE103A704700BF10EE102AFF
:1025A00032F000432FD0002A134633DBB2F1FF4F45
:1025B00040DAB2F5000F34DB4FF0000C6448C3F38F
:1025C0001601084400F4000282F07E520A43DB1533
:1025D00000EE102A7F3B5F4A634401F10F0CF7EED7
:1025E000007A0CEA020230EE670A03EBD05322BBFA
:1025F000B5EE400AF1EE10FA62D1002B40F0908067
:102600009FED550A70479FED557ADFED537A87EEBF
:10261000270A704770EE407A9FED4F7A87EE870A5F
:102620007047DFED4F7A60EE277A6FF0180C17EEE7
:10263000903AC3E730EE000A7047F0EE007A70EE91
:10264000277A07EE103A80EE274A4648C1F557121E
:10265000084402F522720243002A9FED433ADFED5F
:10266000434ADFED435ADFED433A9FED435ADFED36
:10267000437ADFED436A24EE046AF8EEC72A26EEB9
:10268000067AE7EE034AA7EE235AE4EE875AE5EE10
:10269000076AE5EE877A67EE867AE6EE877A2ADDC4
:1026A000B6EE007A20EE077A27EE007A77EE877A88
:1026B00067EE847A3BBB37EE677A30EE470A7047A5
:1026C0009FED307AF6EE007AE0EE477A20EE007A5F
:1026D00027EE277A002BF0D007EE903A9FED2A6A7A
:1026E000DFED2A6AF8EEE77AA7EEC67A37EE400AFF
:1026F00097EEA60A704770EE677A67EE847AE3B9C0
:1027000030EE670A70479FED206ADFED206AE2EE47
:10271000867A37EE677A37EE400A92EEA60A70475D
:1027200007EE903A9FED180A9FED187AF8EEE77AD7
:1027300027EE800AA7EE870A7047DFED136A9FED48
:10274000137AE2EEE67A37EEC00A92EE870A704715
:1027500020FB4A00F0FF7F0000000000000000CCDA
:102760000000004C305CCFFF9788173E25333A3E7F
:102770002549923E4FD01C3E298E633EABAA2A3F8C
:10278000CDCCCC3EABAAAA3ED1F717378071313FF2
:102790002DE9F04F2DED048BDBB01C4694460393DE
:1027A0000A46CD4B68991CF1040F53F8216082460C
:1027B00004F1FF38C0F24982BCF1030348BF0CF1B9
:1027C0000403DB10029301334FEAC30EACEB0E039C
:1027D0000593029B16EB0800A3EB080316D4013007
:1027E0009FEDBE7A699C18441EA9002BA4BF54F823
:1027F000235007EE905A03F10103ACBFF8EEE77ADD
:10280000F0EE477A8342E1EC017AEED1002EC0F27D
:10281000B182039B1EA901EB830446AD4FEA8309F5
:102820004046F7180AEB8301B8F1000FDFEDAB7AF1
:1028300009DBA3465346F3EC016A3BED017A8B4278
:10284000E6EE877AF7D10130B842E5EC017A04F17F
:102850000404E9D10DF1280B0BEB8603CDE9062E1C
:10286000043B9FEDA09ADFED9E8A059804930AEB46
:10287000090446AF0BEB86090096CDF820C05AAB91
:1028800003EB8603002E13ED140A4FEA860515DDCF
:102890007B195A4660EE097AB0EE407AFDEEE77A8F
:1028A00073ED016AF8EEE77ABB42A7EEE87A37EEFD
:1028B000A60ABDEEC77AA2EC017AEBD1019000F036
:1028C00085FAF4EE007AB0EE408A20EE270A00F096
:1028D000EFFAF2EE007AA0EE678A01980028FDEE8A
:1028E000C89AF8EEE97A38EE678A6CDD06F1FF3EA9
:1028F000C0F108035BF82E2042FA03FC0CFA03F344
:10290000D21AC0F1070119EE903A4BF82E200A4175
:102910006344002A09EE903A00F3F080B5EE408A55
:10292000F1EE10FA40F09D80009B9E420ADD5D446E
:10293000002355F8041D4D4543EA0103F9D1002B4E
:1029400040F0F280009B013B5BF82330002B40F00D
:10295000E780049B012153F8042D0131002AFAD0AD
:10296000731C31449C46029D039A05EB030E0EF145
:10297000804E699D32440EF1FF3E07EB83061EAB8D
:1029800005EB8E0E03EB8205DEED017AF8EEE77AB9
:10299000B8F1000F0EF1040EE5EC017ADFED4F7A8D
:1029A00009DB2A465346F3EC016A32ED017AA34271
:1029B000E6EE877AF7D10CF1010C6145E6EC017A7D
:1029C000E2DA0E465BE740F08F80731E5BF823204F
:1029D000D211002AA2DD19EE903A002E03F1010374
:1029E00009EE903A40F3D48159464FF0000E51F869
:1029F000043B002B6AD0C3F5807341F8043C04E02B
:102A00000B68C3F1FF0341F8043B0EF1010E76455C
:102A1000F6DC01239E4600280ADD012878D0022832
:102A200006D1711E5BF8213003F03F0C4BF821C03A
:102A3000022A7FF473AFB7EE000A734630EE488A7D
:102A4000002B3FF46BAF0992019000F0BFF938EE14
:102A5000408A0198099AB5EE408AF1EE10FA3FF4E7
:102A600063AF9246DDE9062EDDF820C00196AEEB9D
:102A70000C00B0EE480A009E009200F0A7F9DFEDCE
:102A8000186AB4EEE60AF1EE10FADDE90023F0EE82
:102A9000407AC0F250819FED137A059920EE077AB3
:102AA0000831BDEEC77A0591B8EEC77A5C1CE7EE37
:102AB000667ABDEEC77AFDEEE77A17EE901A4BF80C
:102AC000231017EE103A4BF8243046E00EF1010EB9
:102AD000B6458CDB9E469EE7A8D7000800000000A4
:102AE000000080430000803BF6EE007AB4EEE78AF7
:102AF000F1EE10FA80F2988000220FE70133002EE9
:102B000009EE903A3FF770AF002301289E4686D128
:102B1000711E5BF8213003F07F0C4BF821C087E772
:102B2000731C9C4619461EE733469246DDE90512A2
:102B30005C1EA1F108005BF82410009E059061B9AD
:102B400003F18043013B0BEB8303014653F8040D73
:102B5000013C08390028F9D0059105980092B7EE9C
:102B6000000A00F033F9002C009AB0EE407AC0F26F
:102B70000581601C46AD5FED256A81000BEB80038B
:102B800005EB800073ED017AF8EEE77A5B4567EEBE
:102B9000877A27EE267A60ED017AF3D10DF1C80825
:102BA0000B1F46A8C718C646A44600259146002E0E
:102BB00073DB844ADFED847A3846002301E0AB42C0
:102BC00008DCF2EC016AB0EC017A01339E42E6EED9
:102BD000877AF4DA0CF1FF3CBCF1FF3FEEEC017AAE
:102BE00005F10105A7F10407E1D1689B022B4A46D4
:102BF00056DC002B2EDC0ED1DFED737A414431ED33
:102C0000017A414577EE877AF9D15346002B40F09F
:102C1000AE80C2ED007A19EE903A03F007005BB087
:102C2000BDEC048BBDE8F08F19EE903A002E03F155
:102C3000010309EE903AC8BF02223FF7D5AEF7EE86
:102C4000007A37EEC88A022268E600234FF0080EA9
:102C50000293BBE59FED5C7A414471ED017A4145F9
:102C600037EE277AF9D1DDED327A534677EEC77A1F
:102C7000002B75D182ED007A64B133A90123B1EC48
:102C8000017A01339C4277EE877AF8DA53460BB12A
:102C9000F1EE677AC2ED017ABDE7DFED4B7A99E795
:102CA000689B032BB7D1002C7ED008EB840595EDF3
:102CB000007AA0002B46294671ED017AF0EE476AB2
:102CC00037EE277A414577EEC77A81ED007A77EEC5
:102CD000A67AC1ED017AEFD1012C65D095ED007A8D
:102CE00008F1040173ED017AF0EE476A37EE277AB6
:102CF000994277EEC77A83ED007A77EEA67AC3ED34
:102D0000017AEFD1031DDFED307A434408F1080862
:102D100033ED017A984577EE877AF9D15346DDEDA8
:102D2000326A9DED337A73B9C2ED006A82ED017AA1
:102D3000C2ED027A6FE7FDEEC07A1C4617EE901ADC
:102D40004BF8231009E7F1EE666AB1EE477AF1EE2F
:102D5000677AC2ED006A82ED017AC2ED027A5AE723
:102D6000B1EE477A82ED007A002C86D190E7F1EE41
:102D7000677A4EE7039B4FEA83096BE5689B022B5A
:102D80000EDC002B13DC7FF446AFDFED0F7A3CE75F
:102D9000022A7FF4C3ADF7EE007A37EEC88ABDE5AC
:102DA000689B032B7FF437AFDFED077AB6E7534616
:102DB000DDED327A13B9002313606BE74FF0004367
:102DC000136065E7B4D700080000000010EE103A69
:102DD00033F000411A4627D0B1F1FF4F21D213F052
:102DE000FF4F22D1DFED2B7A2B4A60EE277A9042FB
:102DF00017EE903A33DB4CF2503CC3F3C7516045B9
:102E00001A46A1F1190116DDDFED247ADFED246AFF
:102E1000002BB0EE677AB8BFF0EE667A27EE870A2D
:102E2000704730EE000A704770474CF2503C6045E6
:102E30004FEAD151E8DC0144FE29E5DC002915DC2C
:102E400011F1160F19DB193122F0FF4242EAC1528B
:102E500007EE902A9FED130A27EE800A7047DFEDF8
:102E6000127A07EE103A27EE270A704722F0FF4247
:102E700042EAC15300EE103A7047DFED0B7ADFED06
:102E80000B6A002BB0EE677AB8BFF0EE667A27EED9
:102E9000870A70470000004CB03CFFFFCAF249713E
:102EA000CAF249F1000000336042A20D6042A28DD7
:102EB00010EE102AC2F3C7537F3B162B22F00041BD
:102EC00029DC002B104618DB1A4919410A4221D08F
:102ED000DFED197A70EE277AF5EEC07AF1EE10FA8E
:102EE00018DD002A04DA4FF4000242FA03F3184412
:102EF00020EA010300EE103A7047DFED0F7A70EE22
:102F0000277AF5EEC07AF1EE10FA03DD002A08DB2D
:102F10009FED0A0A7047B1F1FF4FFBD330EE000A74
:102F20007047DFED077A0029BFEE000A08BFB0EE58
:102F3000670A7047FFFF7F00CAF249710000000076
:102F400000000080002103E00B4B5B58435004312C
:102F50000A480B4B42189A42F6D30A4A02E0002371
:102F600042F8043B084B9A42F9D307F025FEFDF7DF
:102F70005BF905F0ADFB704778D900080000002030
:102F80001C0400201C0400200C130020FEE700009D
:102F900080B500AF0249034801F010F880BD00BFC2
:102FA0007C0000205C00002080B500AF05F0A8FF89
:102FB00000BF80BD80B500AF0249034801F0E4F9CD
:102FC00080BD00BFC00000208400002080B500AF9D
:102FD0000249034801F092FC80BD00BFF0000020D0
:102FE000C800002080B500AF0249034801F086FC0C
:102FF00080BD00BF20010020F800002080B500AF98
:103000000249034800F0A6FF80BD00BF180200205F
:103010002801002080B500AF0249034800F09AFF64
:1030200080BD00BF100300202002002080B487B0C4
:1030300000AF87ED010A9FED457AD7ED017AF4EEF6
:10304000C77AF1EE10FA01DB642379E0B1EE087A79
:10305000D7ED017AF4EEC77AF1EE10FA01D8002329
:103060006EE000237B6167E0394A7B69DB00134433
:10307000D3ED007A97ED017AB4EEE77AF1EE10FA2B
:1030800057D57B690133324ADB001344D3ED007A14
:1030900097ED017AB4EEE77AF1EE10FA49DB2C4AAB
:1030A0007B69DB00134493ED007A7B690133284A86
:1030B000DB001344D3ED007A77EE677AC7ED047A2C
:1030C000234A7B69DB0013441B7919467B69013372
:1030D0001F4ADB0013441B79CB1A07EE903AF8EE37
:1030E000E77AC7ED037A7B690133194ADB001344A1
:1030F000D3ED007A97ED017A77EE677AC7ED027A21
:103100007B690133124ADB0013441A79D7ED026A56
:10311000D7ED047A86EEA77AD7ED037A67EE277AA1
:10312000FCEEE77AC7ED007A3B78DBB21344DBB202
:1031300006E07B6901337B617B690A2B94D900230C
:1031400018461C37BD465DF8047B7047666606412D
:10315000E0D7000880B584B000AF2B4B5B8807EE4A
:10316000903AF8EE677AC7ED037AD7ED037AB2EEBC
:10317000047AF4EEC77AF1EE10FA08D4D7ED037AA8
:103180009FED227AF4EEC77AF1EE10FA01DD204BC2
:1031900032E09FED207AD7ED037A77EE677A9FEDE4
:1031A0001E7A67EE876A97ED037AC6EE877AC7EDD7
:1031B000027AD7ED027ADFED196A87EEA67AB0EED1
:1031C000470AFEF741FFF0EE407A9FED157A67EE71
:1031D000877A9FED147A37EE877AF7EE006AC6EEAB
:1031E000877AC7ED017AD7ED017A9FED0F7A77EEF6
:1031F000C77AC7ED007A3B6807EE903AB0EE670AEF
:103200001037BD4680BD00BF5407002000507F45E9
:103210000000C6C200F07F4500803B4500401C46D0
:10322000631D9B390FCF5B3B3393884380B483B0DE
:1032300000AF104B1B88FB80FB8807EE903AB8EE7E
:10324000677ADFED0D6AC7EE267A9FED0C7A67EE9E
:10325000877AB2EE067A67EE877AC7ED007A3B6826
:1032600007EE903AB0EE670A0C37BD465DF8047B76
:10327000704700BF5407002000F07F4533335340B0
:1032800080B592B000AF78607B681B6C7B6497ED73
:10329000110AFEF7C9FF87ED100A97ED110AFEF734
:1032A00003FF87ED0F0A7B683A6CDA607B68FA6B84
:1032B0001A617B685B6ABB637B689B6A7B637B6824
:1032C000DB6A3B6397ED0E7AD7ED0D7A37EE277AFE
:1032D000D7ED0C7A77EE277A9FED407A67EE877A02
:1032E000C7ED0B7A97ED0E7AD7ED0B7A77EE677A0A
:1032F000C7ED0A7A97ED0E7AD7ED0B7A37EE677A3B
:10330000D7ED0D6AD7ED0B7A76EEE77A77EEA77AEE
:1033100077EE277A9FED327A67EE877AC7ED097AE2
:103320007B68BA6A1A637B687A6A5A6397ED0A7A8D
:10333000D7ED0F7A27EE277AD7ED096AD7ED107A05
:1033400066EEA77A77EE277AC7ED087AD7ED0A7A84
:10335000B1EE677AD7ED107A27EE277AD7ED096AB2
:10336000D7ED0F7A66EEA77A77EE277AC7ED077A60
:103370007B683A6A9A637B68FA69DA637B685B699F
:10338000BB617B689B697B6197ED067AD7ED0F7A0D
:1033900027EE277AD7ED056AD7ED107A66EEA77A81
:1033A00077EE677AC7ED047A97ED067AD7ED107A53
:1033B00027EE277AD7ED056AD7ED0F7A66EEA77A62
:1033C00077EE277AC7ED037A7B683A69DA617B6822
:1033D000FA681A6200BF4837BD4680BD3BAAAA3EC4
:1033E00036CD133F80B493B000AF786039600023CE
:1033F000A7F846300023A7F844300023A7F842304E
:103400007B68DB697B637B681B6A3B633B681B6A89
:103410001B88FB85D7ED0D7A9FEDE57A67EE877AFD
:10342000C7ED0A7AD7ED0C7AB6EE007A67EE877AA6
:10343000C7ED097AD7ED0C7AF1EE677AC7ED087A15
:1034400097ED0A7AD7ED097A77EE277AC7ED077AF2
:1034500097ED097AD7ED0A7A77EE677AC7ED067AA3
:10346000D7ED087AF5EEC07AF1EE10FACCBF012361
:103470000023DBB21946D7ED067AF5EEC07AF1EEFD
:1034800010FACCBF01230023DBB2DBB25B00DAB25F
:10349000D7ED077AF5EEC07AF1EE10FACCBF012332
:1034A0000023DBB2DBB21344DBB25B00DBB20B44C4
:1034B000FB75FB7D013B052B00F2D78201A252F880
:1034C00023F000BFDD340008CB350008C936000802
:1034D000B5370008A338000881390008D7ED067A0F
:1034E000F1EE677AC7ED0F7AD7ED077AF1EE677ADA
:1034F000C7ED0E7A97ED0F7AD7ED0E7A77EE277A31
:10350000C7ED047AD7ED047AB7EE007AF4EEC77A05
:10351000F1EE10FA0FDDD7ED0F6A97ED047AC6EEE3
:10352000877AC7ED0F7AD7ED0E6A97ED047AC6EE6B
:10353000877AC7ED0E7AB7EE007AD7ED0F7A37EEBD
:10354000677AD7ED0E7A77EE677AB6EE007A67EE95
:10355000877AC7ED037A97ED0E7AD7ED037A37EEC7
:10356000277AFB8D07EE903AF8EEE77A67EE277A36
:10357000FCEEE77A17EE903AA7F8463097ED0F7A0F
:10358000D7ED0E7A37EE277AD7ED037A37EE277A22
:10359000FB8D07EE903AF8EEE77A67EE277AFCEEBD
:1035A000E77A17EE903AA7F84430FB8D07EE903A91
:1035B000B8EEE77AD7ED037A67EE277AFCEEE77A82
:1035C00017EE903AA7F8423050E2D7ED087AF1EEC4
:1035D000677AC7ED0F7AD7ED067AF1EE677AC7ED15
:1035E0000E7A97ED0F7AD7ED0E7A77EE277AC7ED40
:1035F000047AD7ED047AB7EE007AF4EEC77AF1EEEA
:1036000010FA0FDDD7ED0F6A97ED047AC6EE877AD0
:10361000C7ED0F7AD7ED0E6A97ED047AC6EE877A7A
:10362000C7ED0E7AB7EE007AD7ED0F7A37EE677AEC
:10363000D7ED0E7A77EE677AC7ED037AD7ED037A86
:10364000B6EE007A27EE877AFB8D07EE903AF8EE19
:10365000E77A67EE277AFCEEE77A17EE903AA7F85A
:103660004630D7ED037AB6EE007A27EE877AD7EDAB
:103670000E7A37EE277AFB8D07EE903AF8EEE77A6E
:1036800067EE277AFCEEE77A17EE903AA7F8443017
:1036900097ED0F7AD7ED0E7A37EE277AD7ED037ACA
:1036A000F6EE006A67EEA67A37EE277AFB8D07EE14
:1036B000903AF8EEE77A67EE277AFCEEE77A17EEB3
:1036C000903AA7F84230D1E1D7ED0C7AF1EE677A63
:1036D000C7ED0F7AFB69BB6397ED077AD7ED0C7ADC
:1036E00077EE677AC7ED047AD7ED047AB7EE007A01
:1036F000F4EEC77AF1EE10FA0FDDD7ED086A97ED18
:10370000047AC6EE877AC7ED0F7AD7ED076A97ED90
:10371000047AC6EE877AC7ED0E7AB7EE007AD7ED57
:103720000F7A37EE677AD7ED0E7A77EE677AB6EED4
:10373000007A67EE877AC7ED037AFB8D07EE903A41
:10374000B8EEE77AD7ED037A67EE277AFCEEE77AF0
:1037500017EE903AA7F8463097ED0F7AD7ED0E7A2C
:1037600037EE277AD7ED037A37EE277AFB8D07EE0F
:10377000903AF8EEE77A67EE277AFCEEE77A17EEF2
:10378000903AA7F8443097ED0E7AD7ED037A37EEEA
:10379000277AFB8D07EE903AF8EEE77A67EE277A04
:1037A000FCEEE77A17EE903AA7F842305EE100BFF0
:1037B00024B45D3FD7ED077AF1EE677AC7ED0F7A53
:1037C000D7ED087AF1EE677AC7ED0E7A97ED0F7AAA
:1037D000D7ED0E7A77EE277AC7ED047AD7ED047A23
:1037E000B7EE007AF4EEC77AF1EE10FA0FDDD7EDFE
:1037F0000F6A97ED047AC6EE877AC7ED0F7AD7ED98
:103800000E6A97ED047AC6EE877AC7ED0E7AB7EEA8
:10381000007AD7ED0F7A37EE677AD7ED0E7A77EE2A
:10382000677AB6EE007A67EE877AC7ED037A97ED8E
:103830000F7AD7ED0E7A37EE277AD7ED037A37EE87
:10384000277AFB8D07EE903AF8EEE77A67EE277A53
:10385000FCEEE77A17EE903AA7F84630FB8D07EEBC
:10386000903AB8EEE77AD7ED037A67EE277AFCEE66
:10387000E77A17EE903AA7F8443097ED0E7AD7ED35
:10388000037A37EE277AFB8D07EE903AF8EEE77A67
:1038900067EE277AFCEEE77A17EE903AA7F8423007
:1038A000E4E0BB69FB633B6ABB6397ED067AD7ED47
:1038B0000C7A77EE677AC7ED047AD7ED047AB7EE23
:1038C000007AF4EEC77AF1EE10FA0FDDD7ED066A52
:1038D00097ED047AC6EE877AC7ED0F7AD7ED086ABE
:1038E00097ED047AC6EE877AC7ED0E7AB7EE007AC6
:1038F000D7ED0F7A37EE677AD7ED0E7A77EE677AE3
:10390000B6EE007A67EE877AC7ED037A97ED0F7A05
:10391000D7ED0E7A37EE277AD7ED037A37EE277A8E
:10392000FB8D07EE903AF8EEE77A67EE277AFCEE29
:10393000E77A17EE903AA7F8463097ED0E7AD7ED72
:10394000037A37EE277AFB8D07EE903AF8EEE77AA6
:1039500067EE277AFCEEE77A17EE903AA7F8443044
:10396000FB8D07EE903AB8EEE77AD7ED037A67EE73
:10397000277AFCEEE77A17EE903AA7F8423075E026
:10398000FB69FB63BB69BB63D7ED0A7AB1EE677A6B
:10399000D7ED097A77EE677A97ED067A77EE677A50
:1039A000C7ED047AD7ED047AB7EE007AF4EEC77A61
:1039B000F1EE10FA0FDDD7ED076A97ED047AC6EE47
:1039C000877AC7ED0F7AD7ED066A97ED047AC6EECF
:1039D000877AC7ED0E7AB7EE007AD7ED0F7A37EE19
:1039E000677AD7ED0E7A77EE677AB6EE007A67EEF1
:1039F000877AC7ED037A97ED0E7AD7ED037A37EE23
:103A0000277AFB8D07EE903AF8EEE77A67EE277A91
:103A1000FCEEE77A17EE903AA7F84630FB8D07EEFA
:103A2000903AB8EEE77AD7ED037A67EE277AFCEEA4
:103A3000E77A17EE903AA7F8443097ED0F7AD7ED72
:103A40000E7A37EE277AD7ED037A37EE277AFB8D99
:103A500007EE903AF8EEE77A67EE277AFCEEE77A1F
:103A600017EE903AA7F8423000E000BF3B685B6A6F
:103A7000B7F846201A803B689B6AB7F844201A8042
:103A80003B68DB6AB7F842201A8000BF4C37BD465E
:103A90005DF8047B704700BF80B485B000AF7860EC
:103AA0007B68D3F8E030FB607B68B3F8DC30032B35
:103AB00014D17B684FF00002C3F88C207B684FF074
:103AC0000002C3F890207B6893F8DE3083F0010396
:103AD000DBB2002B02D00D4B01221A707B6893F8E9
:103AE000DE30002B0BD00A4B1A880A4B1B889A42F7
:103AF00005D2074B1B8801339AB2054B1A8000BFD1
:103B00001437BD465DF8047B704700BF8105002077
:103B1000840500201803002080B584B000AF7860D1
:103B20000B467B807B68B3F8D03041F287329342FA
:103B30003AD87B68B3F8D03001339AB27B68A3F8E7
:103B4000D0207B689B691B889BB207EE903AB8EE49
:103B5000677A7B68D3ED307A77EE677AB6EE007AD3
:103B600027EE877A7B68D3ED307A77EE277A7B6809
:103B7000C3ED307A7B68DB691B889BB207EE903A15
:103B8000B8EE677A7B68D3ED317A77EE677AB6EE76
:103B9000007A27EE877A7B68D3ED317A77EE277A41
:103BA0007B68C3ED317ACDE1A54B1B78012B3FD06B
:103BB000A44B1B78002B3BD0A24B1B78012B40F071
:103BC000C0817B6893F8DE30002B09D09E4B1A88A9
:103BD0009E4B1B889A422CBF01230023DBB208E0D6
:103BE0009B4B1A88994B1B889A422CBF01230023B8
:103BF000DBB2FB73FB7B002B03D07868FFF74CFF35
:103C00000AE07B6893F8DE30002B05D08E4B1B88D2
:103C100001339AB28C4B1A807B6878331846FFF7D1
:103C20002FFB7B68783379681846FFF7DBFB88E168
:103C30007B689B691B889BB207EE903AB8EE677A67
:103C40007B68D3ED307A77EE677AFDEEE77AF8EEAF
:103C5000E77A9FED807A27EE877A7B68D3ED337A17
:103C600077EE277A7B68C3ED337A7B68DB691B8844
:103C70009BB207EE903AB8EE677A7B68D3ED317A63
:103C800077EE677AFDEEE77AF8EEE77A9FED717AE4
:103C900027EE877A7B68D3ED327A77EE277A7B68D6
:103CA000C3ED327A7B6893F8D2300133DAB27B68A5
:103CB00083F8D2207B6893F8D230012B40F2428106
:103CC0007B68002283F8D2207B68D3ED337AB6EE8E
:103CD000007A67EE877A7B68C3ED177A7B68D3ED4D
:103CE000327AB6EE007A67EE877A7B68C3ED167A91
:103CF0007B68D3ED167AB1EE677A7B68D3ED177ADD
:103D000077EE677A7B68C3ED157A7B684FF0000227
:103D1000C3F8CC207B684FF00002C3F8C8207B6852
:103D20005B8E013B042B00F2FB8001A252F823F0D2
:103D3000453D00089B3D0008753E0008213F0008F6
:103D4000C73E00087B681A8E7B8813449BB2C3F37E
:103D50000E039AB27B68DA867B68DB8E07EE903AB8
:103D6000F8EE677A9FED3C7A67EE877A7B68C3ED61
:103D70000E7A7B68D3ED0E7A9FED387A67EE877AFC
:103D80007B68C3ED1C7A7B684FF000025A647B6845
:103D9000D3F8EC207B689A64C7E07B684FF00002A0
:103DA0001A677B68D3ED117A9FED2D7AF4EEC77A0E
:103DB000F1EE10FA16D57B68D3ED117A9FED297AD2
:103DC00077EE877A7B68C3ED117A7B68D3ED117A41
:103DD0009FED237AF4EEC77AF1EE10FA02DD7B68EC
:103DE000214A5A647B684FF000029A647B88C3F1D1
:103DF0007F4303F57F0303F500439AB27B681A867D
:103E00007B68B3F8D43001339AB27B68A3F8D4202E
:103E10007B68B3F8D43044F61F62934240F282804C
:103E20007B680022A3F8D4207B6801229A867B68F5
:103E300001225A867B684FF000025A6472E000BF8C
:103E40008105002080050020820500201803002045
:103E500084050020D4FF833BA0FE333C4434FA3D6C
:103E60009A99193E17B7D1389A99193E6F12033BA8
:103E7000DB0FC9407B68D3ED1C7A1FED047A77EE27
:103E8000877A7B68C3ED1C7A7B68D3ED1C7A1FEDC3
:103E9000087AF4EEC77AF1EE10FA09DD7B68D3ED0B
:103EA0001C7A1FED0D7A77EEC77A7B68C3ED1C7A1A
:103EB0007B68264A5A647B684FF000029A647B68EC
:103EC0007A88DA8631E07B6805229A867B68B3F8C7
:103ED000D43044F61F62934226D87B68B3F8D430BE
:103EE00001339AB27B68A3F8D4207B684FF00002BC
:103EF0001A677B6893ED117A7B68D3ED3A7AB4EE5A
:103F0000E77AF1EE10FA00D40EE07B68D3ED117A77
:103F10009FED0F7A77EE877A7B68C3ED117A03E025
:103F200000BF02E000BF00E000BF7B6830331846EE
:103F3000FFF7A6F97B68303379681846FFF752FA25
:103F400000E000BF1037BD4680BD00BF8FC2753D89
:103F500017B7D13880B582B000AF78603960396862
:103F6000786807F09FF800BF0837BD4680BD80B471
:103F700083B000AF78600B46FB70002318460C3707
:103F8000BD465DF8047B704780B586B000AFF86031
:103F9000B9607A603B607B681B78FB75FB683B61AE
:103FA0003B6998693B699B8BFA7D194602F038F8AA
:103FB0003B6818461837BD4680BD000080B582B00A
:103FC00000AF786039607B68044A1A6139687868A4
:103FD00007F068F800BF0837BD4680BD40D800082C
:103FE00080B582B000AF78600B46FB7000BF022145
:103FF000786802F097FA0346002BF8D0FB789BB262
:104000001946786802F072FA00BF0121786802F060
:1040100089FA0346002BF8D0786802F076FA034656
:10402000DBB218460837BD4680BD80B584B000AF0E
:1040300078600B46FB700023FB737B68DA697B6852
:104040001B8C1946104601F0DCFF7B689A69FB78EF
:1040500063F07F03DBB219461046FFF7C1FF7B68B0
:104060009B69FF211846FFF7BBFF0346FB737B6884
:10407000DA697B681B8C1946104601F0B3FFFB7BA5
:1040800018461037BD4680BD80B582B000AF78605D
:104090000B46FB701346BB707B68DA697B681B8C30
:1040A0001946104601F0ADFF7B689A69FB7803F072
:1040B0007F03DBB219461046FFF792FF7B689B69CE
:1040C000BA7811461846FFF78BFF7B68DA697B6880
:1040D0001B8C1946104601F085FF00BF0837BD460E
:1040E00080BD80B483B000AF78600B46FB700023C6
:1040F00018460C37BD465DF8047B704780B590B01C
:1041000000AFF860B9607A603B60FB68BB637B68B6
:10411000002B02D03B68172B01D80023C4E0BB6BF7
:10412000DA69BB6B1B8C1946104601F06AFFBB6B4A
:104130009B69BB211846FFF753FF0023FB6310E088
:10414000BB6B9B69FF211846FFF74AFF03461946E0
:1041500007F12402FB6B13440A461A70FB6B013310
:10416000FB63FB6B0D2BEBDDBB6BDA69BB6B1B8C55
:104170001946104601F036FF97F824301BB21B0297
:104180001AB297F825301BB213431BB2BB8397F8C2
:1041900026301BB21B021AB297F827301BB213430A
:1041A0001BB2FB8397F828301BB21B021AB297F898
:1041B00029301BB213431BB23B8497F82C301BB23F
:1041C0001B021AB297F82D301BB213431BB2BB82ED
:1041D00097F82E301BB21B021AB297F82F301BB281
:1041E00013431BB2FB8297F830301BB21B021AB28A
:1041F00097F831301BB213431BB23B837B687B6360
:10420000B7F91C3007EE903AB8EEE77ADFED286A8E
:10421000C7EE267A7B6BC3ED007AB7F91E3007EE46
:10422000903AB8EEE77A7B6B0433DFED216AC7EE94
:10423000267AC3ED007AB7F9203007EE903AB8EE4F
:10424000E77A7B6B0833DFED1A6AC7EE267AC3ED97
:10425000007AB7F9143007EE903AB8EEE77A7B6B44
:104260000C33DFED146AC7EE267AC3ED007AB7F996
:10427000163007EE903AB8EEE77A7B6B1033DFED3D
:104280000D6AC7EE267AC3ED007AB7F9183007EE4B
:10429000903AB8EEE77A7B6B1433DFED066AC7EE2F
:1042A000267AC3ED007A3B6818464037BD4680BD8C
:1042B000000080453333034280B584B000AF78609E
:1042C000396001212C4801F01CF901214FF4C01084
:1042D00001F017F97B68DB69284A934208D17B68B3
:1042E0001B8CB3F5004F03D10121254801F0B0FE2E
:1042F00007F10803184601F040FE0123FB73002379
:104300003B731023BB737B681B8CBB6004237B73E4
:104310007B68DB6907F108021146184601F092FD3F
:104320007B68DA697B681B8C1946104601F05AFEDF
:1043300075217868FFF779FE03461A467B6883F893
:1043400022207B6893F82230702B10D101226B2140
:104350007868FFF799FE7B680A4A1A617B687A6879
:104360005A617B683968184606F09CFE00E000BF81
:104370001037BD4680BD00BF020018000008014094
:104380000203103054D8000880B582B000AF7860C6
:10439000396039687868FFF78FFF00BF0837BD467E
:1043A00080BD000080B582B000AF7860396072B621
:1043B00000BF0548FCF7B8FB3A6879680348FCF78A
:1043C000CFFF00BFFDE700BF68D1000894D100080F
:1043D00080B582B000AF7860396039687868FFF7DF
:1043E000E1FF00BF0837BD4680BD000080B582B048
:1043F00000AF78604FF48051094801F0F3FD094A9D
:104400007B681360084B01221A70084B00221A8047
:10441000074B00221A7000BF0837BD4680BD00BFA1
:1044200000140140880500201A0300208C0500209C
:104430008E05002080B582B000AF4FF400612548A2
:1044400001F0B5FD0346002B0CBF01230023DBB2B6
:10445000FB71214B1B78002B09D0FB79002B02D17B
:104460001D4B00221A701D4AFB7913702FE0FB7957
:10447000012B12D11A4B1B8801339AB2184B1A80A8
:10448000174B1B88642B1FD1164B1B68002B1BD0AE
:10449000144B1B680220984716E0104B1B78012B29
:1044A00012D10F4B1B88022B0BD90D4B1B88632B92
:1044B00007D80C4B1B68002B03D00A4B1B6801204C
:1044C0009847074B00221A80044AFB79137008377B
:1044D000BD4680BD001401401A0300208E05002057
:1044E0008C0500208805002080B500AF72B600BFA3
:1044F00000210D4801F07AFB00220C490C4802F023
:1045000030FC00210B4802F026F800210A4802F096
:1045100022F84FF48061094801F073FD80210848BA
:1045200001F06FFD00BFFDE75800024004000C00E1
:1045300000380140002C01400034014000140140CB
:104540000018014080B584B000AF514BA5221A700D
:104550004F4B5A225A704E4B11229A70FEF766FE4C
:10456000F0EE407A9FED4B7A67EE877AFCEEE77AC1
:1045700017EE903A9AB2464BA3F80320FEF7EAFDF5
:10458000F0EE407AB2EE047A67EE877AFDEEE77AD3
:1045900017EE903A1AB23E4BA3F805203E4B1B682B
:1045A000002B24D03D4B1B68002B20D03A4B1B68BE
:1045B000D3ED1B7A9FED377A67EE877AFDEEE77AC7
:1045C00017EE903A1AB2324BA3F80720334B1B6810
:1045D000D3ED1B7A9FED2F7A67EE877AFDEEE77AAF
:1045E00017EE903A1AB22A4BA3F8092009E0284B9B
:1045F0000022DA7100221A72254B00225A72002220
:104600009A720023FB73264B1B78002B03D0FB7B95
:1046100043F00103FB731E4BB3F803309BB2B3F5B9
:10462000C85F03D2FB7B43F01003FB73184BB3F955
:1046300005301BB240F25232934203DDFB7B43F064
:104640002003FB73124AFB7B53740023BB73154B8F
:10465000BB601023FB800023BB8109E0BB89BA68E3
:1046600013441A78BB7B1344BB73BB890133BB81F2
:10467000BA89FB889A42F1D3054ABB7B9374132114
:10468000034800F009FA00BF1037BD4680BD00BFE7
:104690009005002000007A449C110020A011002009
:1046A0008F0500209205002080B584B000AF7860AF
:1046B0007B68DA697B681B8C1946104601F0A1FC07
:1046C0007B689B6948F22001184600F022F87B685D
:1046D0009B694FF6FF71184600F01BF80346FB81FB
:1046E0007B689B694FF6FF71184600F012F803468D
:1046F000BB817B68DA697B681B8C1946104601F028
:1047000071FCFB89C3F30E039BB218461037BD46FC
:1047100080BD80B584B000AF78600B467B80962367
:10472000FB6007E0FB68013BFB60002B02D14FF60A
:10473000FF7321E00221786801F0F4FE0346002BAC
:10474000F0D07B881946786801F0D0FE9623FB6094
:1047500007E0FB68013BFB60002B02D14FF6FF73C3
:104760000AE00121786801F0DDFE0346002BF0D05D
:10477000786801F0CAFE034618461037BD4680BD72
:1047800080B588B000AFF860B9607A603B60FB68C4
:10479000FB617B68002B02D03B68032B01D8002310
:1047A00047E0FB69DA69FB691B8C1946104601F08A
:1047B00028FCFB699B6948F220011846FFF7A9FF16
:1047C000FB699B694FF6FF711846FFF7A2FF03468E
:1047D0007B83FB699B694FF6FF711846FFF799FFD2
:1047E00003463B83FB69DA69FB691B8C194610465B
:1047F00001F0F8FBB7F91A30002B19DA7B8BC3F301
:104800000E03FB82FB8A07EE903AF8EE677A9FED83
:104810000B7A27EE877ADFED0A6AC7EE267AFB6904
:10482000C3ED097AFB695A6A7B681A60042300E0C9
:10483000002318462037BD4680BD00BF0000B443AA
:104840000000004780B582B000AF78600B46FB7077
:10485000FB781946786806F0DBFC034618460837F3
:10486000BD4680BD80B586B000AF786039607B689A
:10487000DB691F4A934203D101211E4800F041FE2B
:1048800007F10C03184601F078FB0123FB740023A9
:104890003B741023BB747B681B8CFB6018237B74F8
:1048A0007B68DB6907F10C021146184601F0CAFA71
:1048B0007B68DA697B681B8C1946104601F092FB15
:1048C000786807F1080204230021FFF759FF786197
:1048D0007B68094A1A617B687A685A617B68396823
:1048E000184606F0DFFB00BF1837BD4680BD00BF8D
:1048F000001401400500180068D8000880B582B097
:1049000000AF7860396039687868FFF7ABFF00BFA7
:104910000837BD4680BD000080B58AB000AF786022
:104920003960534A3B6813600121524800F0E9FDA9
:104930000121514800F0E5FD01214FF4A01000F0E5
:10494000E0FD07F12003184601F017FB012387F86B
:104950002730002387F82430082387F826304FF4C7
:1049600000733B6207F120031946444801F06AFADC
:10497000002387F826304FF480633B6207F1200361
:1049800019463E4801F05EFA3D4801F0D9F807F1BA
:104990000C03184601F0CCF94023FB820023BB82B4
:1049A000384B3B610023FB7601237B76364BFB6063
:1049B0000023BB7600233B7602237B7700233B77E3
:1049C00007F10C0319462E4801F0DAF901212C48B1
:1049D00001F00CF92D4801F0B3F807F10C0318466B
:1049E00001F0A6F90023FB821023BB8200233B6168
:1049F000254BFB600023FB760023BB7601237B76EF
:104A000000233B7601237B7700233B7707F10C03E0
:104A100019461E4801F0B4F900211C4801F0E6F8DF
:104A20000023002279681A4802F0ECF801211848A6
:104A300002F06DF90121164802F07EF901211448B7
:104A400002F0C3F90121124802F0D4F90122114900
:104A50000F4802F086F900220A21252001F0F1FB1F
:104A600001210B4802F03EF900BF2837BD4680BD4A
:104A7000E4050020020018000E00180000080140A4
:104A800058000240A40500200438014044000240C0
:104A90000038014004000C0080B582B000AF78609F
:104AA0000B467B801A4B1B68C3F30003DBB2012B60
:104AB00014D1174B5B68002B0CD00021144801F077
:104AC00095F80021134802F080F90121114802F005
:104AD0007CF903E000210E4801F088F800210C4821
:104AE00001F084F84FF4805001F006F940210948A4
:104AF00002F06CFA064A7B68D360054A7B885360F3
:104B00000121034801F072F800BF0837BD4680BD9F
:104B1000440002400038014080B582B000AF10214F
:104B2000194802F07DF90346002B28D0164B1B686C
:104B30003B60154B5B683B603B680021134801F00C
:104B400055F8124B5B689BB2C3F14003FB80104BDE
:104B50001B68002B08D0FB88002B05D00C4B1B6872
:104B6000FA8811460B4898474FF4803001F0C4F89A
:104B7000064B40225A600121044801F037F800BF7B
:104B80000837BD4680BD00BF0038014058000240D4
:104B9000E4050020A405002080B483B000AF0346E4
:104BA0000A46FB8013467B71FB88002B05D10D4A1A
:104BB000536823F00203536004E00A4A536843F049
:104BC00002035360074A7B7903F00103D9B25368AB
:104BD00061F30003536000BF0C37BD465DF8047BF2
:104BE000704700BF0058014080B483B000AF034657
:104BF000FB80044AFB88D36000BF0C37BD465DF8DC
:104C0000047B70470058014080B483B000AF034676
:104C1000FB80044AFB88136100BF0C37BD465DF87A
:104C2000047B70470058014080B483B000AF034656
:104C3000FB80044AFB88536100BF0C37BD465DF81A
:104C4000047B70470058014080B582B000AF7860A7
:104C50007B68144A934208D10121134800F08FFC6D
:104C60000021114800F08BFC18E07B680F4A93424A
:104C700008D101210E4800F082FC00210C4800F010
:104C80007EFC0BE07B680B4A934207D101210A4866
:104C900000F075FC0021084800F071FC00BF0837E7
:104CA000BD4680BD0024014009000C0000280140E1
:104CB0000A000C00003C01400F000C0080B483B0DF
:104CC00000AF78600B46FB70FB7803F00103D9B2AC
:104CD0007A68936861F30003936000BF0C37BD46A8
:104CE0005DF8047B7047000080B483B000AF0346DA
:104CF000FB71074AFB7903F00F03D9B2536861F3E4
:104D00001343536000BF0C37BD465DF8047B70470A
:104D10000024014080B483B000AF78607B6800223B
:104D20001A707B6800225A707B6800229A707B6838
:104D30000122DA7000BF0C37BD465DF8047B704776
:104D400080B483B000AF786039603B681B7803F0B3
:104D50000103D9B27A68536861F3082353603B6852
:104D60005B7803F00103D9B27A68936861F3410379
:104D700093603B689B7803F00103D9B27A6893682B
:104D800061F3CB2393603B68DB78013BDBB203F03C
:104D90000F03D9B27A68D36A61F31753D36200BFA5
:104DA0000C37BD465DF8047B704780B483B000AF1C
:104DB00078600B46FB70FB7803F00103D9B27A6888
:104DC000936861F30823936000BF0C37BD465DF81C
:104DD000047B704780B485B000AFF860B9601346BB
:104DE000FB71FB79012B06D1FB685A68BB681A433B
:104DF000FB685A6009E0FB79002B06D1FB685A6812
:104E0000BB68DB431A40FB685A6000BF1437BD46DD
:104E10005DF8047B704780B483B000AF78607A6837
:104E2000936843F00803936000BF0C37BD465DF8FC
:104E3000047B704780B483B000AF78607B689B6868
:104E4000C3F3C003DBB2002B01D0012300E0002339
:104E500018460C37BD465DF8047B704780B483B0BC
:104E600000AF78607A68936843F00403936000BFF2
:104E70000C37BD465DF8047B704780B483B000AF4B
:104E800078607B689B68C3F38003DBB2002B01D0A2
:104E9000012300E0002318460C37BD465DF8047B73
:104EA000704780B485B000AF7860084611461A4656
:104EB0000346FB700B46BB7013467B70FB78092BD7
:104EC0001DD87B681B69FB60FA7813465B001344AE
:104ED000072202FA03F3DB431A46FB681340FB6028
:104EE0007978FA7813465B00134401FA03F31A4603
:104EF000FB681343FB607B68FA681A6120E07B68FB
:104F0000DB68FB60FB78A3F10A0213465B001344E5
:104F1000072202FA03F3DB431A46FB681340FB60E7
:104F20007978FB78A3F10A0213465B00134401FA77
:104F300003F31A46FB681343FB607B68FA68DA6088
:104F4000BB780C2B21D97B68DB6AFB60BB78A3F1B3
:104F50000D0213469B0013441F2202FA03F3DB43A6
:104F60001A46FB681340FB60F978BB78A3F10D0289
:104F700013469B00134401FA03F31A46FB681343DC
:104F8000FB607B68FA68DA6241E0BB78062B1FD9C8
:104F90007B681B6BFB60BB78DA1F13469B001344D6
:104FA0001F2202FA03F3DB431A46FB681340FB603F
:104FB000F978BB78DA1F13469B00134401FA03F318
:104FC0001A46FB681343FB607B68FA681A631EE0AD
:104FD0007B685B6BFB60BB785A1E13469B001344D7
:104FE0001F2202FA03F3DB431A46FB681340FB60FF
:104FF000F978BB785A1E13469B00134401FA03F359
:105000001A46FB681343FB607B68FA685A6300BF6B
:105010001437BD465DF8047B704780B483B000AFA1
:1050200078600B46FB70FB78013BDBB203F00303B7
:10503000D9B27A68936B61F31553936300BF0C3751
:10504000BD465DF8047B704780B485B000AF7860E2
:10505000084611461A460346FB700B46BB701346C2
:105060007B70FB78092B1DD87B681B69FB60FA7885
:1050700013465B001344072202FA03F3DB431A468C
:10508000FB681340FB607978FA7813465B001344A1
:1050900001FA03F31A46FB681343FB607B68FA6866
:1050A0001A6120E07B68DB68FB60FB78A3F10A02F1
:1050B00013465B001344072202FA03F3DB431A464C
:1050C000FB681340FB607978FB78A3F10A02134672
:1050D0005B00134401FA03F31A46FB681343FB60B9
:1050E0007B68FA68DA607B689B6BC3F30153DBB2C1
:1050F0001A46BB789B1ADBB20333FB72FB7A013B87
:10510000032B33D801A252F823F000BF1D51000831
:10511000315100084551000859510008FB7803F04F
:105120001F03D9B27A68936B61F3040393631EE0A3
:10513000FB7803F01F03D9B27A68936B61F34913CC
:10514000936314E0FB7803F01F03D9B27A68936B82
:1051500061F38E2393630AE0FB7803F01F03D9B257
:105160007A68936B61F3D333936300E000BF00BFB1
:105170001437BD465DF8047B704700BF80B483B030
:1051800000AF78600B46FB701346BB70FB78072BB3
:105190000ED97A68936843F000739360FB7803F04C
:1051A0000703D9B27A68936861F3534393600DE0C3
:1051B0007A68936823F000739360FB7803F0070329
:1051C000D9B27A68936861F353439360BB7803F074
:1051D0000103D9B27A68936861F31453936000BFF6
:1051E0000C37BD465DF8047B704780B483B000AFD8
:1051F00078600B46FB701346BB70FB78072B0ED90B
:105200007A68936843F080739360FB7803F0070338
:10521000D9B27A68936861F30E3393600DE07A68CF
:10522000936823F080739360FB7803F00703D9B28F
:105230007A68936861F30E339360BB7803F00103DF
:10524000D9B27A68936861F3CF33936000BF0C37AB
:10525000BD465DF8047B704780B483B000AF7860D2
:105260000B46FB7013463B80FB78032B32D801A220
:1052700052F823F08552000899520008AD520008F8
:10528000C15200083B88C3F30B0399B27A68536993
:1052900061F30B0353611EE03B88C3F30B0399B228
:1052A0007A68936961F30B03936114E03B88C3F35D
:1052B0000B0399B27A68D36961F30B03D3610AE0F7
:1052C0003B88C3F30B0399B27A68136A61F30B034B
:1052D000136200E000BF00BF0C37BD465DF8047BE1
:1052E000704700BF80B483B000AF78600B46FB709E
:1052F000FB7803F00103D9B27A68536861F3CB23DA
:10530000536000BF0C37BD465DF8047B704780B426
:1053100083B000AF78600B46FB70FB7803F00103AD
:10532000D9B27A68936861F39653936000BF0C37E3
:10533000BD465DF8047B704780B485B000AF7860EF
:105340000B46FB700023FB73FB78042B28D0042B47
:1053500037DC012B02D0022B11D032E07B681B68B6
:10536000C3F30003DBB2002B2DD07B685B68C3F373
:105370008013DBB2002B26D00123FB7323E07B6874
:105380001B68C3F34003DBB2002B1ED07B685B6855
:10539000C3F34013DBB2002B17D00123FB7314E0DF
:1053A0007B681B68C3F38003DBB2002B0FD07B68E4
:1053B0005B68C3F3C013DBB2002B08D00123FB737F
:1053C00005E000BF04E000BF02E000BF00E000BF56
:1053D000FB7B18461437BD465DF8047B704780B4EC
:1053E00083B000AF786039603B68DA437B681A604D
:1053F00000BF0C37BD465DF8047B704780B400AF3A
:10540000184A136843F00103136000BF154B1B6873
:10541000C3F34003DBB2012BF8D1124A536823F0E7
:105420000303536000BF0F4B5B68C3F38103DBB220
:10543000002BF8D10B4B1B680A4A23F0867323F428
:1054400080331360074B00225A60064B00221A6318
:10545000044B4FF41F029A6000BFBD465DF8047B09
:10546000704700BF0010024080B485B000AF786084
:105470000023FB737B681B0C03F1804303F50433AB
:105480001A687B6803F01F03012101FA03F31A4035
:105490007B6803F01F03012101FA03F39A4202D053
:1054A0000023FB7301E00123FB73FB7B18461437D9
:1054B000BD465DF8047B704780B582B000AF002325
:1054C0007B600023FB7002E07B6801337B6011206E
:1054D000FFF7CAFF0346012B03D07B68B3F5405F9B
:1054E000F2D31120FFF7C0FF0346012B02D00023A7
:1054F000FB7001E00123FB70FB7818460837BD46BE
:1055000080BD80B483B000AF78600B46FB70FB7841
:10551000012B16D17B681B0C03F1804303F5043388
:1055200019687B6803F01F0301229A407B681B0CFB
:1055300003F1804303F50433184641EA0203036094
:1055400017E07B681B0C03F1804303F504331968F3
:105550007B6803F01F03012202FA03F3DA437B683E
:105560001B0C03F1804303F50433184601EA0203E0
:10557000036000BF0C37BD465DF8047B704780B404
:1055800083B000AF78600B46FB70FB78012B16D11F
:105590007B681B0C03F1804303F5043319687B68B7
:1055A00003F01F0301229A407B681B0C03F1804328
:1055B00003F50433184641EA0203036017E07B68F1
:1055C0001B0C03F1804303F5043319687B6803F077
:1055D0001F03012202FA03F3DA437B681B0C03F179
:1055E000804303F50433184601EA0203036000BF59
:1055F0000C37BD465DF8047B7047000080B483B073
:1056000000AF03460A46FB711346BB71FB79042BBE
:105610003ED801A252F823F02D560008415600084A
:1056200055560008695600087D5600081C4ABB798B
:1056300003F00103D9B2136861F30003136028E09B
:10564000174ABB7903F00103D9B2136861F3104321
:1056500013601EE0124ABB7903F00103D9B213684C
:1056600061F31863136014E00D4ABB7903F0010382
:10567000D9B2136A61F3000313620AE0084ABB79E6
:1056800003F00103D9B2536A61F30003536200E0EF
:1056900000BF00BF0C37BD465DF8047B704700BFFC
:1056A0000010024080B483B000AF0346FB71074A8C
:1056B000FB7903F00F03D9B2536861F3071353600A
:1056C00000BF0C37BD465DF8047B704700100240F8
:1056D00080B483B000AF0346FB71074AFB7903F047
:1056E0000703D9B2536861F30A23536000BF0C3734
:1056F000BD465DF8047B70470010024080B483B063
:1057000000AF0346FB71074AFB7903F00703D9B2E8
:10571000536861F3CD23536000BF0C37BD465DF87D
:10572000047B70470010024080B483B000AF034692
:10573000FB710D4AFB7903F00303D9B2536861F39F
:105740008F335360FB799B08DBB2074A03F00103F8
:10575000D9B2536861F31C73536000BF0C37BD4668
:105760005DF8047B704700BF0010024080B483B036
:1057700000AF0346FB710B46BB7113467B71FB798F
:10578000002B0AD11F4A536823F4803353601D4A0B
:10579000136B43F00073136312E01A4A536843F427
:1057A00080335360FB79012B05D1164A536823F4EB
:1057B0000033536004E0134A536843F400335360EA
:1057C000104ABB7903F00F03D9B2536861F39543D4
:1057D0005360BB791B110B4A03F00303D9B2536822
:1057E00061F35E735360074A7B7903F00103D9B21A
:1057F000536861F3DF73536000BF0C37BD465DF83B
:10580000047B70470010024080B483B000AF0346B1
:10581000FB71114AFB7903F00303D9B2536861F3BA
:105820000103536000BF00BF00BF00BF00BF00BF47
:1058300000BF00BF00BF00BF00BF00BF00BF00BF70
:1058400000BF00BF00BF00BF00BF00BF00BF0C37DC
:10585000BD465DF8047B70470010024080B400AF85
:10586000044B5B68C3F38103DBB21846BD465DF8A9
:10587000047B70470010024080B58AB000AF7860AA
:1058800000233B6200237B620023FB610023BB619A
:1058900000237B6100233B61FFF7E0FF0346FB73BE
:1058A000FB7B022B20D0022B69DC002B02D0012BCA
:1058B00016D064E05D4B5B6DC3F34023DBB2002B7D
:1058C0000AD05A4B1B6BC3F34063DBB2002B03D0EF
:1058D0007B68574A1A6056E07B68564A1A6052E065
:1058E0007B68544A1A604EE0504B5B68C3F3004338
:1058F000DBB2BB614D4B5B68C3F38343DBB27B62BE
:105900004A4B5B68C3F34173DBB2FB61FB69002B5D
:1059100002D17B6A0F2B06D1FB691A017B6A134403
:1059200001337B6202E07B6A02337B62BB69002B3E
:1059300006D17B6A404A03FB02F27B681A6022E0D0
:105940003A4B5B68C3F34043DBB2002B10D0374BBC
:105950005B6DC3F30133DBB23B623B6A0233354A12
:10596000B2FBF3F37A6A03FB02F27B681A600AE087
:105970007B6A304A03FB02F27B681A6003E07B68B3
:105980002C4A1A6000BF294B5B68C3F30313DBB2D8
:105990007B612A4A7B6913441B783B617B681A68E8
:1059A0003B69DA407B685A60204B5B68C3F3022393
:1059B000DBB27B61224A7B6913441B783B617B68C5
:1059C0005A683B69DA407B68DA60184B5B68C3F35E
:1059D000C223DBB27B611B4A7B6913441B783B61AA
:1059E0007B685A683B69DA407B689A600F4B5B685A
:1059F000C3F30073DBB27B617B699B000B4A526887
:105A0000C2F38132D2B213437B610F4A7B691344E4
:105A10001B783B617B689A683B69B2FBF3F27B6859
:105A20001A6100BF2837BD4680BD00BF001002408C
:105A3000006CDC0200127A0000093D007CD80008EE
:105A40008CD8000894D800089CD8000880B483B093
:105A500000AF0346FB71FB79012B05D1084A536D5A
:105A600043F03003536504E0054A536D23F03003DF
:105A7000536500BF0C37BD465DF8047B704700BF1F
:105A80000010024080B483B000AF0346FB71074AA8
:105A9000FB7903F00103D9B2D36D61F30003D36541
:105AA00000BF0C37BD465DF8047B70470010024014
:105AB00080B483B000AF0346FB71074AFB7903F063
:105AC0000103D9B2136B61F35963136300BF0C3741
:105AD000BD465DF8047B70470010024080B582B07F
:105AE00000AF0346FB710120FFF7E2FF064AFB7996
